{
  "contractName": "PatientRecord",
  "abi": [
    {
      "constant": true,
      "inputs": [
        {
          "name": "",
          "type": "uint8"
        }
      ],
      "name": "patients",
      "outputs": [
        {
          "name": "id",
          "type": "uint8"
        },
        {
          "name": "name",
          "type": "string"
        },
        {
          "name": "age",
          "type": "uint8"
        },
        {
          "name": "Address",
          "type": "string"
        },
        {
          "name": "phoneNumber",
          "type": "string"
        },
        {
          "name": "drugAllergy",
          "type": "string"
        },
        {
          "name": "congenitalDisease",
          "type": "string"
        }
      ],
      "payable": false,
      "stateMutability": "view",
      "type": "function"
    },
    {
      "constant": false,
      "inputs": [
        {
          "name": "_id",
          "type": "uint8"
        },
        {
          "name": "_name",
          "type": "string"
        },
        {
          "name": "_age",
          "type": "uint8"
        },
        {
          "name": "_address",
          "type": "string"
        },
        {
          "name": "_phoneNumber",
          "type": "string"
        },
        {
          "name": "_drugAllergy",
          "type": "string"
        },
        {
          "name": "_congenitalDisease",
          "type": "string"
        }
      ],
      "name": "addPatient",
      "outputs": [],
      "payable": false,
      "stateMutability": "nonpayable",
      "type": "function"
    },
    {
      "constant": true,
      "inputs": [
        {
          "name": "_id",
          "type": "uint8"
        }
      ],
      "name": "getPatient",
      "outputs": [
        {
          "name": "",
          "type": "uint8"
        },
        {
          "name": "",
          "type": "string"
        },
        {
          "name": "",
          "type": "uint8"
        },
        {
          "name": "",
          "type": "string"
        },
        {
          "name": "",
          "type": "string"
        },
        {
          "name": "",
          "type": "string"
        },
        {
          "name": "",
          "type": "string"
        }
      ],
      "payable": false,
      "stateMutability": "view",
      "type": "function"
    }
  ],
  "bytecode": "0x608060405234801561001057600080fd5b5061121a806100206000396000f3fe608060405260043610610051576000357c0100000000000000000000000000000000000000000000000000000000900480636ed80862146100565780638f2e8614146102d7578063c213addd14610615575b600080fd5b34801561006257600080fd5b506100926004803603602081101561007957600080fd5b81019080803560ff169060200190929190505050610896565b604051808860ff1660ff168152602001806020018760ff1660ff1681526020018060200180602001806020018060200186810386528c818151815260200191508051906020019080838360005b838110156100fa5780820151818401526020810190506100df565b50505050905090810190601f1680156101275780820380516001836020036101000a031916815260200191505b5086810385528a818151815260200191508051906020019080838360005b83811015610160578082015181840152602081019050610145565b50505050905090810190601f16801561018d5780820380516001836020036101000a031916815260200191505b50868103845289818151815260200191508051906020019080838360005b838110156101c65780820151818401526020810190506101ab565b50505050905090810190601f1680156101f35780820380516001836020036101000a031916815260200191505b50868103835288818151815260200191508051906020019080838360005b8381101561022c578082015181840152602081019050610211565b50505050905090810190601f1680156102595780820380516001836020036101000a031916815260200191505b50868103825287818151815260200191508051906020019080838360005b83811015610292578082015181840152602081019050610277565b50505050905090810190601f1680156102bf5780820380516001836020036101000a031916815260200191505b509c5050505050505050505050505060405180910390f35b3480156102e357600080fd5b50610613600480360360e08110156102fa57600080fd5b81019080803560ff1690602001909291908035906020019064010000000081111561032457600080fd5b82018360208201111561033657600080fd5b8035906020019184600183028401116401000000008311171561035857600080fd5b91908080601f016020809104026020016040519081016040528093929190818152602001838380828437600081840152601f19601f820116905080830192505050505050509192919290803560ff169060200190929190803590602001906401000000008111156103c857600080fd5b8201836020820111156103da57600080fd5b803590602001918460018302840111640100000000831117156103fc57600080fd5b91908080601f016020809104026020016040519081016040528093929190818152602001838380828437600081840152601f19601f8201169050808301925050505050505091929192908035906020019064010000000081111561045f57600080fd5b82018360208201111561047157600080fd5b8035906020019184600183028401116401000000008311171561049357600080fd5b91908080601f016020809104026020016040519081016040528093929190818152602001838380828437600081840152601f19601f820116905080830192505050505050509192919290803590602001906401000000008111156104f657600080fd5b82018360208201111561050857600080fd5b8035906020019184600183028401116401000000008311171561052a57600080fd5b91908080601f016020809104026020016040519081016040528093929190818152602001838380828437600081840152601f19601f8201169050808301925050505050505091929192908035906020019064010000000081111561058d57600080fd5b82018360208201111561059f57600080fd5b803590602001918460018302840111640100000000831117156105c157600080fd5b91908080601f016020809104026020016040519081016040528093929190818152602001838380828437600081840152601f19601f820116905080830192505050505050509192919290505050610c80565b005b34801561062157600080fd5b506106516004803603602081101561063857600080fd5b81019080803560ff169060200190929190505050610db1565b604051808860ff1660ff168152602001806020018760ff1660ff1681526020018060200180602001806020018060200186810386528c818151815260200191508051906020019080838360005b838110156106b957808201518184015260208101905061069e565b50505050905090810190601f1680156106e65780820380516001836020036101000a031916815260200191505b5086810385528a818151815260200191508051906020019080838360005b8381101561071f578082015181840152602081019050610704565b50505050905090810190601f16801561074c5780820380516001836020036101000a031916815260200191505b50868103845289818151815260200191508051906020019080838360005b8381101561078557808201518184015260208101905061076a565b50505050905090810190601f1680156107b25780820380516001836020036101000a031916815260200191505b50868103835288818151815260200191508051906020019080838360005b838110156107eb5780820151818401526020810190506107d0565b50505050905090810190601f1680156108185780820380516001836020036101000a031916815260200191505b50868103825287818151815260200191508051906020019080838360005b83811015610851578082015181840152602081019050610836565b50505050905090810190601f16801561087e5780820380516001836020036101000a031916815260200191505b509c5050505050505050505050505060405180910390f35b6000606060006060806060806108aa611105565b6000808a60ff1660ff16815260200190815260200160002060e060405190810160405290816000820160009054906101000a900460ff1660ff1660ff168152602001600182018054600181600116156101000203166002900480601f0160208091040260200160405190810160405280929190818152602001828054600181600116156101000203166002900480156109845780601f1061095957610100808354040283529160200191610984565b820191906000526020600020905b81548152906001019060200180831161096757829003601f168201915b505050505081526020016002820160009054906101000a900460ff1660ff1660ff168152602001600382018054600181600116156101000203166002900480601f016020809104026020016040519081016040528092919081815260200182805460018160011615610100020316600290048015610a435780601f10610a1857610100808354040283529160200191610a43565b820191906000526020600020905b815481529060010190602001808311610a2657829003601f168201915b50505050508152602001600482018054600181600116156101000203166002900480601f016020809104026020016040519081016040528092919081815260200182805460018160011615610100020316600290048015610ae55780601f10610aba57610100808354040283529160200191610ae5565b820191906000526020600020905b815481529060010190602001808311610ac857829003601f168201915b50505050508152602001600582018054600181600116156101000203166002900480601f016020809104026020016040519081016040528092919081815260200182805460018160011615610100020316600290048015610b875780601f10610b5c57610100808354040283529160200191610b87565b820191906000526020600020905b815481529060010190602001808311610b6a57829003601f168201915b50505050508152602001600682018054600181600116156101000203166002900480601f016020809104026020016040519081016040528092919081815260200182805460018160011615610100020316600290048015610c295780601f10610bfe57610100808354040283529160200191610c29565b820191906000526020600020905b815481529060010190602001808311610c0c57829003601f168201915b5050505050815250509050806000015181602001518260400151836060015184608001518560a001518660c00151859550839350829250819150809050975097509750975097509750975050919395979092949650565b60e0604051908101604052808860ff1681526020018781526020018660ff168152602001858152602001848152602001838152602001828152506000808960ff1660ff16815260200190815260200160002060008201518160000160006101000a81548160ff021916908360ff1602179055506020820151816001019080519060200190610d0f929190611149565b5060408201518160020160006101000a81548160ff021916908360ff1602179055506060820151816003019080519060200190610d4d929190611149565b506080820151816004019080519060200190610d6a929190611149565b5060a0820151816005019080519060200190610d87929190611149565b5060c0820151816006019080519060200190610da4929190611149565b5090505050505050505050565b60006020528060005260406000206000915090508060000160009054906101000a900460ff1690806001018054600181600116156101000203166002900480601f016020809104026020016040519081016040528092919081815260200182805460018160011615610100020316600290048015610e705780601f10610e4557610100808354040283529160200191610e70565b820191906000526020600020905b815481529060010190602001808311610e5357829003601f168201915b5050505050908060020160009054906101000a900460ff1690806003018054600181600116156101000203166002900480601f016020809104026020016040519081016040528092919081815260200182805460018160011615610100020316600290048015610f215780601f10610ef657610100808354040283529160200191610f21565b820191906000526020600020905b815481529060010190602001808311610f0457829003601f168201915b505050505090806004018054600181600116156101000203166002900480601f016020809104026020016040519081016040528092919081815260200182805460018160011615610100020316600290048015610fbf5780601f10610f9457610100808354040283529160200191610fbf565b820191906000526020600020905b815481529060010190602001808311610fa257829003601f168201915b505050505090806005018054600181600116156101000203166002900480601f01602080910402602001604051908101604052809291908181526020018280546001816001161561010002031660029004801561105d5780601f106110325761010080835404028352916020019161105d565b820191906000526020600020905b81548152906001019060200180831161104057829003601f168201915b505050505090806006018054600181600116156101000203166002900480601f0160208091040260200160405190810160405280929190818152602001828054600181600116156101000203166002900480156110fb5780601f106110d0576101008083540402835291602001916110fb565b820191906000526020600020905b8154815290600101906020018083116110de57829003601f168201915b5050505050905087565b60e060405190810160405280600060ff16815260200160608152602001600060ff168152602001606081526020016060815260200160608152602001606081525090565b828054600181600116156101000203166002900490600052602060002090601f016020900481019282601f1061118a57805160ff19168380011785556111b8565b828001600101855582156111b8579182015b828111156111b757825182559160200191906001019061119c565b5b5090506111c591906111c9565b5090565b6111eb91905b808211156111e75760008160009055506001016111cf565b5090565b9056fea165627a7a72305820740b5e34782a88b910baec6cbb18af1441c96343b89bf33ef30ac4a4b9bbd77a0029",
  "source": "// SPDX-License-Identifier: MIT\r\npragma solidity >=0.4.22 <0.9.0;\r\n\r\n// SPDX-License-Identifier: MIT\r\npragma solidity >=0.4.22 <0.9.0;\r\n\r\ncontract PatientRecord {\r\n    struct Patient {\r\n        uint8 id; // ลดขนาดของชนิดข้อมูลเพื่อประหยัด gas\r\n        string name;\r\n        // string gender;\r\n        uint8 age; // ลดขนาดของชนิดข้อมูลเพื่อประหยัด gas\r\n        // uint16 height; // ลดขนาดของชนิดข้อมูลเพื่อประหยัด gas\r\n        // uint16 weight; // ลดขนาดของชนิดข้อมูลเพื่อประหยัด gas\r\n        string Address;\r\n        string phoneNumber;\r\n        string drugAllergy;\r\n        string congenitalDisease;\r\n    }\r\n\r\n    mapping(uint8 => Patient) public patients;\r\n\r\n    function addPatient(\r\n        uint8 _id,\r\n        string memory _name,\r\n        // string memory _gender,\r\n        uint8 _age,\r\n        // uint16 _height,\r\n        // uint16 _weight,\r\n        string memory _address,\r\n        string memory _phoneNumber,\r\n        string memory _drugAllergy,\r\n        string memory _congenitalDisease\r\n    ) public {\r\n        patients[_id] = Patient(\r\n            _id,\r\n            _name,\r\n            // _gender,\r\n            _age,\r\n            // _height,\r\n            // _weight,\r\n            _address,\r\n            _phoneNumber,\r\n            _drugAllergy,\r\n            _congenitalDisease\r\n        );\r\n    }\r\n\r\n    function getPatient(uint8 _id)\r\n        public\r\n        view\r\n        returns (\r\n            uint8,\r\n            string memory,\r\n            // string memory,\r\n            uint8,\r\n            // uint16,\r\n            // uint16,\r\n            string memory,\r\n            string memory,\r\n            string memory,\r\n            string memory\r\n        )\r\n    {\r\n        Patient memory patient = patients[_id];\r\n        return (\r\n            patient.id,\r\n            patient.name,\r\n            // patient.gender,\r\n            patient.age,\r\n            // patient.height,\r\n            // patient.weight,\r\n            patient.Address,\r\n            patient.phoneNumber,\r\n            patient.drugAllergy,\r\n            patient.congenitalDisease\r\n        );\r\n    }\r\n}\r\n",
  "sourcePath": "C:\\Blockchain_Project\\Blockchain_BTMK\\contracts\\PatientRecord.sol",
  "compiler": {
    "name": "solc",
    "version": "0.5.1+commit.c8a2cb62.Emscripten.clang"
  },
  "schemaVersion": "3.4.16",
  "updatedAt": "2024-04-01T19:42:41.880Z",
  "networkType": "ethereum",
  "devdoc": {
    "methods": {}
  },
  "userdoc": {
    "methods": {}
  }
}