{
  "contractName": "PatientRecord",
  "abi": [
    {
      "constant": true,
      "inputs": [
        {
          "name": "",
          "type": "uint256"
        }
      ],
      "name": "patients",
      "outputs": [
        {
          "name": "id",
          "type": "uint256"
        },
        {
          "name": "name",
          "type": "string"
        },
        {
          "name": "gender",
          "type": "string"
        },
        {
          "name": "age",
          "type": "uint8"
        },
        {
          "name": "bloodType",
          "type": "string"
        },
        {
          "name": "phoneNumber",
          "type": "string"
        },
        {
          "name": "drugAllergy",
          "type": "string"
        },
        {
          "name": "congenitalDisease",
          "type": "string"
        }
      ],
      "payable": false,
      "stateMutability": "view",
      "type": "function"
    },
    {
      "constant": false,
      "inputs": [
        {
          "name": "_id",
          "type": "uint8"
        },
        {
          "name": "_name",
          "type": "string"
        },
        {
          "name": "_gender",
          "type": "string"
        },
        {
          "name": "_age",
          "type": "uint8"
        },
        {
          "name": "_bloodType",
          "type": "string"
        },
        {
          "name": "_phoneNumber",
          "type": "string"
        },
        {
          "name": "_drugAllergy",
          "type": "string"
        },
        {
          "name": "_congenitalDisease",
          "type": "string"
        }
      ],
      "name": "addPatient",
      "outputs": [],
      "payable": false,
      "stateMutability": "nonpayable",
      "type": "function"
    },
    {
      "constant": true,
      "inputs": [
        {
          "name": "_id",
          "type": "uint256"
        }
      ],
      "name": "getPatient",
      "outputs": [
        {
          "name": "",
          "type": "uint256"
        },
        {
          "name": "",
          "type": "string"
        },
        {
          "name": "",
          "type": "string"
        },
        {
          "name": "",
          "type": "uint8"
        },
        {
          "name": "",
          "type": "string"
        },
        {
          "name": "",
          "type": "string"
        },
        {
          "name": "",
          "type": "string"
        },
        {
          "name": "",
          "type": "string"
        }
      ],
      "payable": false,
      "stateMutability": "view",
      "type": "function"
    }
  ],
  "bytecode": "0x608060405234801561001057600080fd5b506114ae806100206000396000f3fe608060405260043610610051576000357c0100000000000000000000000000000000000000000000000000000000900480637d3a67961461005657806393119a831461033a578063dab201951461061e575b600080fd5b34801561006257600080fd5b5061008f6004803603602081101561007957600080fd5b81019080803590602001909291905050506109f4565b6040518089815260200180602001806020018860ff1660ff1681526020018060200180602001806020018060200187810387528e818151815260200191508051906020019080838360005b838110156100f55780820151818401526020810190506100da565b50505050905090810190601f1680156101225780820380516001836020036101000a031916815260200191505b5087810386528d818151815260200191508051906020019080838360005b8381101561015b578082015181840152602081019050610140565b50505050905090810190601f1680156101885780820380516001836020036101000a031916815260200191505b5087810385528b818151815260200191508051906020019080838360005b838110156101c15780820151818401526020810190506101a6565b50505050905090810190601f1680156101ee5780820380516001836020036101000a031916815260200191505b5087810384528a818151815260200191508051906020019080838360005b8381101561022757808201518184015260208101905061020c565b50505050905090810190601f1680156102545780820380516001836020036101000a031916815260200191505b50878103835289818151815260200191508051906020019080838360005b8381101561028d578082015181840152602081019050610272565b50505050905090810190601f1680156102ba5780820380516001836020036101000a031916815260200191505b50878103825288818151815260200191508051906020019080838360005b838110156102f35780820151818401526020810190506102d8565b50505050905090810190601f1680156103205780820380516001836020036101000a031916815260200191505b509e50505050505050505050505050505060405180910390f35b34801561034657600080fd5b506103736004803603602081101561035d57600080fd5b8101908080359060200190929190505050610e73565b6040518089815260200180602001806020018860ff1660ff1681526020018060200180602001806020018060200187810387528e818151815260200191508051906020019080838360005b838110156103d95780820151818401526020810190506103be565b50505050905090810190601f1680156104065780820380516001836020036101000a031916815260200191505b5087810386528d818151815260200191508051906020019080838360005b8381101561043f578082015181840152602081019050610424565b50505050905090810190601f16801561046c5780820380516001836020036101000a031916815260200191505b5087810385528b818151815260200191508051906020019080838360005b838110156104a557808201518184015260208101905061048a565b50505050905090810190601f1680156104d25780820380516001836020036101000a031916815260200191505b5087810384528a818151815260200191508051906020019080838360005b8381101561050b5780820151818401526020810190506104f0565b50505050905090810190601f1680156105385780820380516001836020036101000a031916815260200191505b50878103835289818151815260200191508051906020019080838360005b83811015610571578082015181840152602081019050610556565b50505050905090810190601f16801561059e5780820380516001836020036101000a031916815260200191505b50878103825288818151815260200191508051906020019080838360005b838110156105d75780820151818401526020810190506105bc565b50505050905090810190601f1680156106045780820380516001836020036101000a031916815260200191505b509e50505050505050505050505050505060405180910390f35b34801561062a57600080fd5b506109f2600480360361010081101561064257600080fd5b81019080803560ff1690602001909291908035906020019064010000000081111561066c57600080fd5b82018360208201111561067e57600080fd5b803590602001918460018302840111640100000000831117156106a057600080fd5b91908080601f016020809104026020016040519081016040528093929190818152602001838380828437600081840152601f19601f8201169050808301925050505050505091929192908035906020019064010000000081111561070357600080fd5b82018360208201111561071557600080fd5b8035906020019184600183028401116401000000008311171561073757600080fd5b91908080601f016020809104026020016040519081016040528093929190818152602001838380828437600081840152601f19601f820116905080830192505050505050509192919290803560ff169060200190929190803590602001906401000000008111156107a757600080fd5b8201836020820111156107b957600080fd5b803590602001918460018302840111640100000000831117156107db57600080fd5b91908080601f016020809104026020016040519081016040528093929190818152602001838380828437600081840152601f19601f8201169050808301925050505050505091929192908035906020019064010000000081111561083e57600080fd5b82018360208201111561085057600080fd5b8035906020019184600183028401116401000000008311171561087257600080fd5b91908080601f016020809104026020016040519081016040528093929190818152602001838380828437600081840152601f19601f820116905080830192505050505050509192919290803590602001906401000000008111156108d557600080fd5b8201836020820111156108e757600080fd5b8035906020019184600183028401116401000000008311171561090957600080fd5b91908080601f016020809104026020016040519081016040528093929190818152602001838380828437600081840152601f19601f8201169050808301925050505050505091929192908035906020019064010000000081111561096c57600080fd5b82018360208201111561097e57600080fd5b803590602001918460018302840111640100000000831117156109a057600080fd5b91908080601f016020809104026020016040519081016040528093929190818152602001838380828437600081840152601f19601f820116905080830192505050505050509192919290505050611258565b005b60006060806000606080606080610a09611394565b6000808b8152602001908152602001600020610100604051908101604052908160008201548152602001600182018054600181600116156101000203166002900480601f016020809104026020016040519081016040528092919081815260200182805460018160011615610100020316600290048015610acb5780601f10610aa057610100808354040283529160200191610acb565b820191906000526020600020905b815481529060010190602001808311610aae57829003601f168201915b50505050508152602001600282018054600181600116156101000203166002900480601f016020809104026020016040519081016040528092919081815260200182805460018160011615610100020316600290048015610b6d5780601f10610b4257610100808354040283529160200191610b6d565b820191906000526020600020905b815481529060010190602001808311610b5057829003601f168201915b505050505081526020016003820160009054906101000a900460ff1660ff1660ff168152602001600482018054600181600116156101000203166002900480601f016020809104026020016040519081016040528092919081815260200182805460018160011615610100020316600290048015610c2c5780601f10610c0157610100808354040283529160200191610c2c565b820191906000526020600020905b815481529060010190602001808311610c0f57829003601f168201915b50505050508152602001600582018054600181600116156101000203166002900480601f016020809104026020016040519081016040528092919081815260200182805460018160011615610100020316600290048015610cce5780601f10610ca357610100808354040283529160200191610cce565b820191906000526020600020905b815481529060010190602001808311610cb157829003601f168201915b50505050508152602001600682018054600181600116156101000203166002900480601f016020809104026020016040519081016040528092919081815260200182805460018160011615610100020316600290048015610d705780601f10610d4557610100808354040283529160200191610d70565b820191906000526020600020905b815481529060010190602001808311610d5357829003601f168201915b50505050508152602001600782018054600181600116156101000203166002900480601f016020809104026020016040519081016040528092919081815260200182805460018160011615610100020316600290048015610e125780601f10610de757610100808354040283529160200191610e12565b820191906000526020600020905b815481529060010190602001808311610df557829003601f168201915b5050505050815250509050806000015181602001518260400151836060015184608001518560a001518660c001518760e001518696508595508393508292508191508090509850985098509850985098509850985050919395975091939597565b6000602052806000526040600020600091509050806000015490806001018054600181600116156101000203166002900480601f016020809104026020016040519081016040528092919081815260200182805460018160011615610100020316600290048015610f255780601f10610efa57610100808354040283529160200191610f25565b820191906000526020600020905b815481529060010190602001808311610f0857829003601f168201915b505050505090806002018054600181600116156101000203166002900480601f016020809104026020016040519081016040528092919081815260200182805460018160011615610100020316600290048015610fc35780601f10610f9857610100808354040283529160200191610fc3565b820191906000526020600020905b815481529060010190602001808311610fa657829003601f168201915b5050505050908060030160009054906101000a900460ff1690806004018054600181600116156101000203166002900480601f0160208091040260200160405190810160405280929190818152602001828054600181600116156101000203166002900480156110745780601f1061104957610100808354040283529160200191611074565b820191906000526020600020905b81548152906001019060200180831161105757829003601f168201915b505050505090806005018054600181600116156101000203166002900480601f0160208091040260200160405190810160405280929190818152602001828054600181600116156101000203166002900480156111125780601f106110e757610100808354040283529160200191611112565b820191906000526020600020905b8154815290600101906020018083116110f557829003601f168201915b505050505090806006018054600181600116156101000203166002900480601f0160208091040260200160405190810160405280929190818152602001828054600181600116156101000203166002900480156111b05780601f10611185576101008083540402835291602001916111b0565b820191906000526020600020905b81548152906001019060200180831161119357829003601f168201915b505050505090806007018054600181600116156101000203166002900480601f01602080910402602001604051908101604052809291908181526020018280546001816001161561010002031660029004801561124e5780601f106112235761010080835404028352916020019161124e565b820191906000526020600020905b81548152906001019060200180831161123157829003601f168201915b5050505050905088565b610100604051908101604052808960ff1681526020018881526020018781526020018660ff168152602001858152602001848152602001838152602001828152506000808a60ff1681526020019081526020016000206000820151816000015560208201518160010190805190602001906112d49291906113dd565b5060408201518160020190805190602001906112f19291906113dd565b5060608201518160030160006101000a81548160ff021916908360ff160217905550608082015181600401908051906020019061132f9291906113dd565b5060a082015181600501908051906020019061134c9291906113dd565b5060c08201518160060190805190602001906113699291906113dd565b5060e08201518160070190805190602001906113869291906113dd565b509050505050505050505050565b61010060405190810160405280600081526020016060815260200160608152602001600060ff168152602001606081526020016060815260200160608152602001606081525090565b828054600181600116156101000203166002900490600052602060002090601f016020900481019282601f1061141e57805160ff191683800117855561144c565b8280016001018555821561144c579182015b8281111561144b578251825591602001919060010190611430565b5b509050611459919061145d565b5090565b61147f91905b8082111561147b576000816000905550600101611463565b5090565b9056fea165627a7a723058203ea7ead65f09e3e6d0cd8955af2dc9fab2139f1f696d1e86ea2c9e06c18804fa0029",
  "source": "// SPDX-License-Identifier: MIT\r\npragma solidity >=0.4.22 <0.9.0;\r\n\r\ncontract PatientRecord {\r\n    struct Patient {\r\n        uint id; // ลดขนาดของชนิดข้อมูลเพื่อประหยัด gas\r\n        string name;\r\n        string gender;\r\n        uint8 age; // ลดขนาดของชนิดข้อมูลเพื่อประหยัด gas\r\n        string bloodType;\r\n        // string Address;\r\n        string phoneNumber;\r\n        string drugAllergy;\r\n        string congenitalDisease;\r\n    }\r\n\r\n    mapping(uint => Patient) public patients;\r\n\r\n    function addPatient(\r\n        uint8 _id,\r\n        string memory _name,\r\n        string memory _gender,\r\n        uint8 _age,\r\n        string memory _bloodType,\r\n        // string memory _address,\r\n        string memory _phoneNumber,\r\n        string memory _drugAllergy,\r\n        string memory _congenitalDisease\r\n    ) public {\r\n        patients[_id] = Patient(\r\n            _id,\r\n            _name,\r\n            _gender,\r\n            _age,\r\n            _bloodType,\r\n            // _address,\r\n            _phoneNumber,\r\n            _drugAllergy,\r\n            _congenitalDisease\r\n        );\r\n    }\r\n\r\n    function getPatient(uint _id)\r\n        public\r\n        view\r\n        returns (\r\n            uint,\r\n            string memory,\r\n            string memory,\r\n            uint8,\r\n            string memory,\r\n            // string memory,\r\n            string memory,\r\n            string memory,\r\n            string memory\r\n        )\r\n    {\r\n        Patient memory patient = patients[_id];\r\n        return (\r\n            patient.id,\r\n            patient.name,\r\n            patient.gender,\r\n            patient.age,\r\n            patient.bloodType,\r\n            patient.phoneNumber,\r\n            patient.drugAllergy,\r\n            patient.congenitalDisease\r\n        );\r\n    }\r\n}\r\n",
  "sourcePath": "C:\\Blockchain_Project\\Blockchain_BTMK\\contracts\\PatientRecord.sol",
  "compiler": {
    "name": "solc",
    "version": "0.5.1+commit.c8a2cb62.Emscripten.clang"
  },
  "schemaVersion": "3.4.16",
  "updatedAt": "2024-04-01T21:40:16.571Z",
  "networkType": "ethereum",
  "devdoc": {
    "methods": {}
  },
  "userdoc": {
    "methods": {}
  }
}